{
  "contractName": "Calculator",
  "abi": [
    {
      "inputs": [],
      "payable": false,
      "stateMutability": "nonpayable",
      "type": "constructor"
    },
    {
      "constant": false,
      "inputs": [
        {
          "name": "x",
          "type": "int256"
        },
        {
          "name": "y",
          "type": "int256"
        }
      ],
      "name": "add",
      "outputs": [
        {
          "name": "",
          "type": "int256"
        }
      ],
      "payable": false,
      "stateMutability": "nonpayable",
      "type": "function"
    }
  ],
  "bytecode": "0x6060604052341561000f57600080fd5b60b98061001d6000396000f300606060405260043610603f576000357c0100000000000000000000000000000000000000000000000000000000900463ffffffff168063a5f3c23b146044575b600080fd5b3415604e57600080fd5b606b60048080359060200190919080359060200190919050506081565b6040518082815260200191505060405180910390f35b600060029050929150505600a165627a7a723058201ddd2e36767830f6c9a0e82f4ed6790983f22e29d7cbed75c3a9cff2d53596100029",
  "source": "pragma solidity ^0.4.4;\n\ncontract Calculator {\n  function Calculator() {\n    // constructor\n  }\n\n  function add(int x, int y) returns (int) {\n    return 2;\n  }\n}\n",
  "sourcePath": "C:\\ClassRoom\\BlockChain\\SolidityNWeb3\\SmartContracts\\HelloTruffle\\contracts\\Calculator.sol",
  "compiler": {
    "name": "solc",
    "version": "0.4.19+commit.c4cbbb05.Emscripten.clang"
  },
  "schemaVersion": "1.0.1",
  "updatedAt": "2018-02-24T05:20:44.699Z"
}