{
  "contractName": "Ownership",
  "abi": [
    {
      "inputs": [],
      "payable": false,
      "stateMutability": "nonpayable",
      "type": "constructor"
    },
    {
      "constant": false,
      "inputs": [
        {
          "name": "newOwner",
          "type": "address"
        }
      ],
      "name": "changeOwner",
      "outputs": [],
      "payable": false,
      "stateMutability": "nonpayable",
      "type": "function"
    }
  ],
  "bytecode": "0x6060604052341561000f57600080fd5b33600260006101000a81548173ffffffffffffffffffffffffffffffffffffffff021916908373ffffffffffffffffffffffffffffffffffffffff16021790555060ea8061005e6000396000f300606060405260043610603f576000357c0100000000000000000000000000000000000000000000000000000000900463ffffffff168063a6f9dae1146044575b600080fd5b3415604e57600080fd5b6078600480803573ffffffffffffffffffffffffffffffffffffffff16906020019091905050607a565b005b80600260006101000a81548173ffffffffffffffffffffffffffffffffffffffff021916908373ffffffffffffffffffffffffffffffffffffffff160217905550505600a165627a7a72305820ad95a457e76678fbf2e224bece3354e5b283b721a2fab0a5580372559bd386d60029",
  "source": "pragma solidity ^0.4.4;\n\ncontract Ownership {\n  function Ownership() public {\n    // constructor\n    owner = msg.sender;\n  }\n\n  mapping (uint=>address) rtoMap;\n\n  address[] rtoList;\n  \n  address owner;\n\n  function addRTO(uint id, address rtoAddress) internal {\n    rtoMap[id] = rtoAddress;\n    rtoList.push(rtoAddress);\n  }\n\n  modifier onlyOwner() {\n    if (owner == msg.sender) {\n      _;\n    } else {\n      revert();\n    }\n  }\n\n  modifier onlyRTO() {\n    _;\n  }\n\n  modifier onlyOwnerOrRTO() {\n    _;\n  }\n\n  function changeOwner(address newOwner) public onlyRTO {\n    owner = newOwner;\n  }\n}\n",
  "sourcePath": "C:\\ClassRoom\\BlockChain\\SolidityNWeb3\\Projects\\VehicleRTO\\contracts\\Ownership.sol",
  "compiler": {
    "name": "solc",
    "version": "0.4.19+commit.c4cbbb05.Emscripten.clang"
  },
  "schemaVersion": "1.0.1",
  "updatedAt": "2018-03-11T05:53:22.470Z"
}