{
  "contractName": "VehicleRTO",
  "abi": [
    {
      "constant": false,
      "inputs": [
        {
          "name": "newOwner",
          "type": "address"
        }
      ],
      "name": "changeOwner",
      "outputs": [],
      "payable": false,
      "stateMutability": "nonpayable",
      "type": "function"
    },
    {
      "inputs": [
        {
          "name": "rtoAddress",
          "type": "address"
        }
      ],
      "payable": false,
      "stateMutability": "nonpayable",
      "type": "constructor"
    },
    {
      "constant": true,
      "inputs": [
        {
          "name": "owner",
          "type": "address"
        }
      ],
      "name": "getOwnerVehicleDetails",
      "outputs": [
        {
          "name": "registrationNo",
          "type": "string"
        },
        {
          "name": "make",
          "type": "string"
        },
        {
          "name": "year",
          "type": "uint8"
        }
      ],
      "payable": false,
      "stateMutability": "view",
      "type": "function"
    },
    {
      "constant": false,
      "inputs": [
        {
          "name": "registrationNo",
          "type": "string"
        },
        {
          "name": "make",
          "type": "string"
        },
        {
          "name": "year",
          "type": "uint8"
        },
        {
          "name": "owner",
          "type": "address"
        }
      ],
      "name": "registerVehicle",
      "outputs": [],
      "payable": false,
      "stateMutability": "nonpayable",
      "type": "function"
    }
  ],
  "bytecode": "0x6060604052341561000f57600080fd5b6040516020806109018339810160405280805190602001909190505033600260006101000a81548173ffffffffffffffffffffffffffffffffffffffff021916908373ffffffffffffffffffffffffffffffffffffffff16021790555061008a60008261009064010000000002610649176401000000009004565b50610199565b8060008084815260200190815260200160002060006101000a81548173ffffffffffffffffffffffffffffffffffffffff021916908373ffffffffffffffffffffffffffffffffffffffff160217905550600180548060010182816100f59190610148565b9160005260206000209001600083909190916101000a81548173ffffffffffffffffffffffffffffffffffffffff021916908373ffffffffffffffffffffffffffffffffffffffff160217905550505050565b81548183558181151161016f5781836000526020600020918201910161016e9190610174565b5b505050565b61019691905b8082111561019257600081600090555060010161017a565b5090565b90565b610759806101a86000396000f300606060405260043610610057576000357c0100000000000000000000000000000000000000000000000000000000900463ffffffff168063182e9a1e1461005c5780634859f43014610187578063a6f9dae114610252575b600080fd5b341561006757600080fd5b610093600480803573ffffffffffffffffffffffffffffffffffffffff1690602001909190505061028b565b6040518080602001806020018460ff1660ff168152602001838103835286818151815260200191508051906020019080838360005b838110156100e35780820151818401526020810190506100c8565b50505050905090810190601f1680156101105780820380516001836020036101000a031916815260200191505b50838103825285818151815260200191508051906020019080838360005b8381101561014957808201518184015260208101905061012e565b50505050905090810190601f1680156101765780820380516001836020036101000a031916815260200191505b509550505050505060405180910390f35b341561019257600080fd5b610250600480803590602001908201803590602001908080601f0160208091040260200160405190810160405280939291908181526020018383808284378201915050505050509190803590602001908201803590602001908080601f0160208091040260200160405190810160405280939291908181526020018383808284378201915050505050509190803560ff1690602001909190803573ffffffffffffffffffffffffffffffffffffffff16906020019091905050610439565b005b341561025d57600080fd5b610289600480803573ffffffffffffffffffffffffffffffffffffffff16906020019091905050610507565b005b61029361054b565b61029b61054b565b600080600360008673ffffffffffffffffffffffffffffffffffffffff1673ffffffffffffffffffffffffffffffffffffffff1681526020019081526020016000209050806000018054600181600116156101000203166002900480601f0160208091040260200160405190810160405280929190818152602001828054600181600116156101000203166002900480156103775780601f1061034c57610100808354040283529160200191610377565b820191906000526020600020905b81548152906001019060200180831161035a57829003601f168201915b50505050509350806001018054600181600116156101000203166002900480601f0160208091040260200160405190810160405280929190818152602001828054600181600116156101000203166002900480156104165780601f106103eb57610100808354040283529160200191610416565b820191906000526020600020905b8154815290600101906020018083116103f957829003601f168201915b505050505092508060020160009054906101000a900460ff169150509193909250565b61044161055f565b6060604051908101604052808681526020018581526020018460ff16815250905080600360008473ffffffffffffffffffffffffffffffffffffffff1673ffffffffffffffffffffffffffffffffffffffff16815260200190815260200160002060008201518160000190805190602001906104be929190610590565b5060208201518160010190805190602001906104db929190610590565b5060408201518160020160006101000a81548160ff021916908360ff1602179055509050505050505050565b80600260006101000a81548173ffffffffffffffffffffffffffffffffffffffff021916908373ffffffffffffffffffffffffffffffffffffffff16021790555050565b602060405190810160405280600081525090565b606060405190810160405280610573610610565b8152602001610580610610565b8152602001600060ff1681525090565b828054600181600116156101000203166002900490600052602060002090601f016020900481019282601f106105d157805160ff19168380011785556105ff565b828001600101855582156105ff579182015b828111156105fe5782518255916020019190600101906105e3565b5b50905061060c9190610624565b5090565b602060405190810160405280600081525090565b61064691905b8082111561064257600081600090555060010161062a565b5090565b90565b8060008084815260200190815260200160002060006101000a81548173ffffffffffffffffffffffffffffffffffffffff021916908373ffffffffffffffffffffffffffffffffffffffff160217905550600180548060010182816106ae9190610701565b9160005260206000209001600083909190916101000a81548173ffffffffffffffffffffffffffffffffffffffff021916908373ffffffffffffffffffffffffffffffffffffffff160217905550505050565b815481835581811511610728578183600052602060002091820191016107279190610624565b5b5050505600a165627a7a723058200020a32d1f7e848e2a92a2be053bd08c85ce74a2e0e3267d62116e45276917670029",
  "source": "pragma solidity ^0.4.4;\n\nimport \"./Ownership.sol\";\ncontract VehicleRTO is Ownership {\n  function VehicleRTO(address rtoAddress)  Ownership() public {\n    // constructor\n    addRTO(0, rtoAddress);\n  }\n\n  mapping (address=>Vehicle) private registrationMap ;\n\n  struct Vehicle {\n    string registrationNumber;\n    string make;\n    uint8  year;\n  }\n\n  function getOwnerVehicleDetails(address owner) public view onlyOwnerOrRTO returns \n    (string registrationNo,string make,uint8 year) \n    {\n    var vehicleDetails = registrationMap[owner];\n    registrationNo = vehicleDetails.registrationNumber;\n    make = vehicleDetails.make;\n    year = vehicleDetails.year;\n  }\n\n  function registerVehicle(string registrationNo,string make,uint8 year,address owner)\n    public onlyRTO \n  {\n    var vehicleDetails = Vehicle(registrationNo,make,year);\n    registrationMap[owner] = vehicleDetails;\n    //fill the map with structure\n  }\n}\n",
  "sourcePath": "C:\\ClassRoom\\BlockChain\\SolidityNWeb3\\Projects\\VehicleRTO\\contracts\\VehicleRTO.sol",
  "compiler": {
    "name": "solc",
    "version": "0.4.19+commit.c4cbbb05.Emscripten.clang"
  },
  "schemaVersion": "1.0.1",
  "updatedAt": "2018-03-11T05:53:22.471Z"
}