{
  "contractName": "AutoFare",
  "abi": [
    {
      "constant": true,
      "inputs": [],
      "name": "getBalance",
      "outputs": [
        {
          "name": "",
          "type": "uint256"
        }
      ],
      "payable": false,
      "stateMutability": "view",
      "type": "function"
    },
    {
      "constant": true,
      "inputs": [
        {
          "name": "distance",
          "type": "uint16"
        }
      ],
      "name": "owner",
      "outputs": [
        {
          "name": "",
          "type": "address"
        }
      ],
      "payable": false,
      "stateMutability": "view",
      "type": "function"
    },
    {
      "inputs": [
        {
          "name": "distance",
          "type": "uint16"
        },
        {
          "name": "price",
          "type": "uint16"
        }
      ],
      "payable": true,
      "stateMutability": "payable",
      "type": "function",
      "constant": false,
      "name": "receiveEther",
      "outputs": []
    },
    {
      "constant": false,
      "inputs": [
        {
          "name": "distance",
          "type": "uint16"
        }
      ],
      "name": "computeFare",
      "outputs": [
        {
          "name": "",
          "type": "uint256"
        }
      ],
      "payable": false,
      "stateMutability": "nonpayable",
      "type": "function"
    },
    {
      "inputs": [
        {
          "name": "distance",
          "type": "uint16"
        },
        {
          "name": "price",
          "type": "uint16"
        }
      ],
      "payable": false,
      "stateMutability": "nonpayable",
      "type": "constructor"
    },
    {
      "payable": true,
      "stateMutability": "payable",
      "type": "fallback"
    }
  ],
  "bytecode": "0x60606040526000600155341561001457600080fd5b60405160408061030d83398101604052808051906020019091908051906020019091905050818181600060146101000a81548161ffff021916908361ffff16021790555080600060166101000a81548161ffff021916908361ffff160217905550336000806101000a81548173ffffffffffffffffffffffffffffffffffffffff021916908373ffffffffffffffffffffffffffffffffffffffff16021790555050505050610245806100c86000396000f300606060405260043610610062576000357c0100000000000000000000000000000000000000000000000000000000900463ffffffff16806312065fe0146100645780638da5cb5b1461008d578063a3912ec8146100e2578063f0032567146100ec575b005b341561006f57600080fd5b610077610127565b6040518082815260200191505060405180910390f35b341561009857600080fd5b6100a0610146565b604051808273ffffffffffffffffffffffffffffffffffffffff1673ffffffffffffffffffffffffffffffffffffffff16815260200191505060405180910390f35b6100ea61016b565b005b34156100f757600080fd5b610111600480803561ffff169060200190919050506101b4565b6040518082815260200191505060405180910390f35b60003073ffffffffffffffffffffffffffffffffffffffff1631905090565b6000809054906101000a900473ffffffffffffffffffffffffffffffffffffffff1681565b336000806101000a81548173ffffffffffffffffffffffffffffffffffffffff021916908373ffffffffffffffffffffffffffffffffffffffff16021790555034600181905550565b60008082600060146101000a81548161ffff021916908361ffff1602179055506064606e600060169054906101000a900461ffff16600060149054906101000a900461ffff16020261ffff1681151561020957fe5b0490508061ffff169150509190505600a165627a7a7230582027195139fd3ab37deb8743c36bc1496986f546d72e58fb006fbfa3b76b174b7b0029",
  "source": "pragma solidity ^0.4.4;\nimport \"./FareBase.sol\";\ncontract AutoFare is FareBase {\n  function AutoFare(uint16 distance,uint16 price) FareBase(distance,price)  public {\n    // constructor\n  }\n\n  function() public payable {\n\n  }\n  uint lastReceived = 0;\n\n  function receiveEther() public payable {\n      owner = msg.sender;\n      lastReceived = msg.value;\n  }\n\n  function computeFare(uint16 distance) public returns (uint) {\n    distanceTravelled = distance;\n    var value = (distanceTravelled*pricePerUnit * 110)/100;\n    return uint(value);\n  }\n\n  function  getBalance() public view returns (uint) {\n    return this.balance;\n  }\n    \n  \n}\n",
  "sourcePath": "C:\\Training\\BlockChain\\SolidityNWeb3\\SmartContracts\\March2018\\AbstractionDemo\\contracts\\AutoFare.sol",
  "compiler": {
    "name": "solc",
    "version": "0.4.18+commit.9cf6e910.Emscripten.clang"
  },
  "schemaVersion": "1.0.1",
  "updatedAt": "2018-03-09T13:40:02.604Z"
}