{
  "contractName": "CarFare",
  "abi": [
    {
      "constant": true,
      "inputs": [],
      "name": "owner",
      "outputs": [
        {
          "name": "",
          "type": "address"
        }
      ],
      "payable": false,
      "stateMutability": "view",
      "type": "function"
    },
    {
      "constant": false,
      "inputs": [
        {
          "name": "distance",
          "type": "uint256"
        }
      ],
      "name": "bookCab",
      "outputs": [
        {
          "name": "",
          "type": "uint256"
        }
      ],
      "payable": false,
      "stateMutability": "nonpayable",
      "type": "function"
    },
    {
      "inputs": [
        {
          "name": "distance",
          "type": "uint16"
        },
        {
          "name": "price",
          "type": "uint16"
        }
      ],
      "payable": false,
      "stateMutability": "nonpayable",
      "type": "function",
      "constant": false,
      "name": "computeFare",
      "outputs": [
        {
          "name": "",
          "type": "uint256"
        }
      ]
    },
    {
      "inputs": [
        {
          "name": "distance",
          "type": "uint16"
        },
        {
          "name": "price",
          "type": "uint16"
        }
      ],
      "payable": false,
      "stateMutability": "nonpayable",
      "type": "constructor"
    },
    {
      "anonymous": false,
      "inputs": [
        {
          "indexed": false,
          "name": "distance",
          "type": "uint256"
        },
        {
          "indexed": false,
          "name": "from",
          "type": "address"
        }
      ],
      "name": "bookingRecieved",
      "type": "event"
    }
  ],
  "bytecode": "0x6060604052341561000f57600080fd5b6040516040806102f683398101604052808051906020019091908051906020019091905050818181600060146101000a81548161ffff021916908361ffff16021790555080600060166101000a81548161ffff021916908361ffff160217905550336000806101000a81548173ffffffffffffffffffffffffffffffffffffffff021916908373ffffffffffffffffffffffffffffffffffffffff16021790555050505050610233806100c36000396000f300606060405260043610610057576000357c0100000000000000000000000000000000000000000000000000000000900463ffffffff1680638da5cb5b1461005c578063b74ffca7146100b1578063f0032567146100d4575b600080fd5b341561006757600080fd5b61006f61010f565b604051808273ffffffffffffffffffffffffffffffffffffffff1673ffffffffffffffffffffffffffffffffffffffff16815260200191505060405180910390f35b34156100bc57600080fd5b6100d26004808035906020019091905050610134565b005b34156100df57600080fd5b6100f9600480803561ffff169060200190919050506101a2565b6040518082815260200191505060405180910390f35b6000809054906101000a900473ffffffffffffffffffffffffffffffffffffffff1681565b7fb5928f37e41eb423a26db426dfcbf18dd7371639c6ea6fd487fe89a714b4d0368133604051808381526020018273ffffffffffffffffffffffffffffffffffffffff1673ffffffffffffffffffffffffffffffffffffffff1681526020019250505060405180910390a150565b60008082600060146101000a81548161ffff021916908361ffff1602179055506064606e600060169054906101000a900461ffff16600060149054906101000a900461ffff16020261ffff168115156101f757fe5b0490508061ffff169150509190505600a165627a7a723058206c03046da12f76c8d08d4a5498500191143fc4bc08ac88d5d3a128a4f582c56a0029",
  "source": "pragma solidity ^0.4.4;\nimport \"./FareBase.sol\";\ncontract CarFare is FareBase {\n  function CarFare(uint16 distance,uint16 price) FareBase(distance,price)  public {\n    // constructor\n  }\n\n  function computeFare(uint16 distance) public returns (uint) {\n    distanceTravelled = distance;\n    var value = (distanceTravelled*pricePerUnit * 110)/100;\n    return uint(value);\n  }\n\n  event bookingRecieved(uint distance, address from);\n\n\n  function bookCab(uint distance) public {\n    bookingRecieved(distance,msg.sender);\n  }\n}\n",
  "sourcePath": "C:\\Training\\BlockChain\\SolidityNWeb3\\SmartContracts\\March2018\\AbstractionDemo\\contracts\\CarFare.sol",
  "compiler": {
    "name": "solc",
    "version": "0.4.18+commit.9cf6e910.Emscripten.clang"
  },
  "schemaVersion": "1.0.1",
  "updatedAt": "2018-03-09T13:40:02.607Z"
}