{
  "contractName": "AutoFareCalculator",
  "abi": [
    {
      "constant": false,
      "inputs": [],
      "name": "discount",
      "outputs": [
        {
          "name": "",
          "type": "uint256"
        }
      ],
      "payable": false,
      "stateMutability": "nonpayable",
      "type": "function"
    },
    {
      "constant": false,
      "inputs": [
        {
          "name": "location",
          "type": "string"
        }
      ],
      "name": "AddLocation",
      "outputs": [],
      "payable": false,
      "stateMutability": "nonpayable",
      "type": "function"
    },
    {
      "inputs": [],
      "payable": false,
      "stateMutability": "nonpayable",
      "type": "constructor"
    },
    {
      "constant": false,
      "inputs": [
        {
          "name": "source",
          "type": "string"
        },
        {
          "name": "destination",
          "type": "string"
        }
      ],
      "name": "calculateFare",
      "outputs": [
        {
          "name": "",
          "type": "uint256"
        }
      ],
      "payable": false,
      "stateMutability": "nonpayable",
      "type": "function"
    }
  ],
  "bytecode": "0x6060604052341561000f57600080fd5b6101da8061001e6000396000f300606060405260043610610057576000357c0100000000000000000000000000000000000000000000000000000000900463ffffffff1680633f32af651461005c5780636b6f4a9d14610110578063b5fd76bb14610139575b600080fd5b341561006757600080fd5b6100fa600480803590602001908201803590602001908080601f0160208091040260200160405190810160405280939291908181526020018383808284378201915050505050509190803590602001908201803590602001908080601f01602080910402602001604051908101604052809392919081815260200183838082843782019150505050505091905050610196565b6040518082815260200191505060405180910390f35b341561011b57600080fd5b6101236101a2565b6040518082815260200191505060405180910390f35b341561014457600080fd5b610194600480803590602001908201803590602001908080601f016020809104026020016040519081016040528093929190818152602001838380828437820191505050505050919050506101ab565b005b600060fa905092915050565b6000600a905090565b505600a165627a7a72305820cc77300751f4da60aca4cbd303aa9be99ebb2032c935743be226dc5849dcf1660029",
  "source": "pragma solidity ^0.4.4;\nimport \"./BaseFareCalculator.sol\";\nimport \"./Discount.sol\";\ncontract AutoFareCalculator is BaseFareCalculator, Discount {\n  function AutoFareCalculator() {\n    // constructor\n  }\n\n  function calculateFare(string source,string destination) public returns (uint256){\n    return 250;\n  }\n\n  function secret() private {\n\n  }\n\n}\n",
  "sourcePath": "E:\\Blockchain\\SolidityNWeb3\\SmartContracts\\March2018\\FareContract\\contracts\\AutoFareCalculator.sol",
  "compiler": {
    "name": "solc",
    "version": "0.4.19+commit.c4cbbb05.Emscripten.clang"
  },
  "schemaVersion": "1.0.1",
  "updatedAt": "2018-03-04T03:55:45.927Z"
}