{
  "contractName": "Discount",
  "abi": [
    {
      "inputs": [],
      "payable": false,
      "stateMutability": "nonpayable",
      "type": "constructor"
    },
    {
      "constant": false,
      "inputs": [],
      "name": "discount",
      "outputs": [
        {
          "name": "",
          "type": "uint256"
        }
      ],
      "payable": false,
      "stateMutability": "nonpayable",
      "type": "function"
    },
    {
      "constant": false,
      "inputs": [
        {
          "name": "location",
          "type": "string"
        }
      ],
      "name": "AddLocation",
      "outputs": [],
      "payable": false,
      "stateMutability": "nonpayable",
      "type": "function"
    }
  ],
  "bytecode": "0x6060604052341561000f57600080fd5b6101068061001e6000396000f3006060604052600436106049576000357c0100000000000000000000000000000000000000000000000000000000900463ffffffff1680636b6f4a9d14604e578063b5fd76bb146074575b600080fd5b3415605857600080fd5b605e60ce565b6040518082815260200191505060405180910390f35b3415607e57600080fd5b60cc600480803590602001908201803590602001908080601f0160208091040260200160405190810160405280939291908181526020018383808284378201915050505050509190505060d7565b005b6000600a905090565b505600a165627a7a72305820c332a00bf59c4f6ccb892e386be0606fe0404313dadc5a5f2c3cbf35f17173890029",
  "source": "pragma solidity ^0.4.4;\n\ncontract Discount {\n  function Discount() {\n    // constructor\n  }\n\n  function discount() returns (uint) {\n    return 10;\n  }\n\n  function AddLocation(string location) {\n    \n  }\n}\n",
  "sourcePath": "E:\\Blockchain\\SolidityNWeb3\\SmartContracts\\March2018\\FareContract\\contracts\\Discount.sol",
  "compiler": {
    "name": "solc",
    "version": "0.4.19+commit.c4cbbb05.Emscripten.clang"
  },
  "schemaVersion": "1.0.1",
  "updatedAt": "2018-03-04T03:55:45.925Z"
}