{
  "contractName": "VisibilityDerived",
  "abi": [
    {
      "constant": false,
      "inputs": [],
      "name": "IsThisExternal",
      "outputs": [],
      "payable": false,
      "stateMutability": "nonpayable",
      "type": "function"
    },
    {
      "constant": false,
      "inputs": [],
      "name": "IsThisPublic",
      "outputs": [],
      "payable": false,
      "stateMutability": "nonpayable",
      "type": "function"
    },
    {
      "inputs": [],
      "payable": false,
      "stateMutability": "nonpayable",
      "type": "constructor"
    },
    {
      "constant": false,
      "inputs": [],
      "name": "test",
      "outputs": [],
      "payable": false,
      "stateMutability": "nonpayable",
      "type": "function"
    }
  ],
  "bytecode": "0x6060604052341561000f57600080fd5b60c88061001d6000396000f3006060604052600436106053576000357c0100000000000000000000000000000000000000000000000000000000900463ffffffff16806357c508d3146058578063b261ce9c14606a578063f8a8fd6d14607c575b600080fd5b3415606257600080fd5b6068608e565b005b3415607457600080fd5b607a6090565b005b3415608657600080fd5b608c6092565b005b565b565b6098609a565b565b5600a165627a7a7230582076dfe573116dd449f2c26c2c81f33ec1cfbe777fc0eae0519d2471b6f7f413f70029",
  "source": "pragma solidity ^0.4.4;\n\nimport \"./VisibilityDemo.sol\";\n\ncontract VisibilityDerived is VisibilityDemo {\n  function VisibilityDerived() {\n    // constructor\n  }\n\n  function test() {\n    IsThisInternal();\n  }\n}\n",
  "sourcePath": "E:\\Blockchain\\SolidityNWeb3\\SmartContracts\\March2018\\FareContract\\contracts\\VisibilityDerived.sol",
  "compiler": {
    "name": "solc",
    "version": "0.4.19+commit.c4cbbb05.Emscripten.clang"
  },
  "schemaVersion": "1.0.1",
  "updatedAt": "2018-03-04T03:55:45.926Z"
}