{
  "contractName": "VisibilityDemo",
  "abi": [
    {
      "inputs": [],
      "payable": false,
      "stateMutability": "nonpayable",
      "type": "constructor"
    },
    {
      "constant": false,
      "inputs": [],
      "name": "IsThisPublic",
      "outputs": [],
      "payable": false,
      "stateMutability": "nonpayable",
      "type": "function"
    },
    {
      "constant": false,
      "inputs": [],
      "name": "IsThisExternal",
      "outputs": [],
      "payable": false,
      "stateMutability": "nonpayable",
      "type": "function"
    }
  ],
  "bytecode": "0x6060604052341561000f57600080fd5b60a28061001d6000396000f3006060604052600436106049576000357c0100000000000000000000000000000000000000000000000000000000900463ffffffff16806357c508d314604e578063b261ce9c146060575b600080fd5b3415605857600080fd5b605e6072565b005b3415606a57600080fd5b60706074565b005b565b5600a165627a7a72305820270f5e48a8e1c713950ac1cd6b4dd7ff3b5870083fc00a2d7426f89377f1a3c80029",
  "source": "pragma solidity ^0.4.4;\n\ncontract VisibilityDemo {\n  function VisibilityDemo() public {\n    // constructor\n  }\n\n  function IsThisPublic() public {\n    \n  }\n\n  function IsThisPrivate() private {\n    this.IsThisExternal();\n  }\n\n  function IsThisExternal() external {\n    \n  }\n\n  function IsThisInternal() internal {\n    \n  }\n\n}\n",
  "sourcePath": "E:\\Blockchain\\SolidityNWeb3\\SmartContracts\\March2018\\FareContract\\contracts\\VisibilityDemo.sol",
  "compiler": {
    "name": "solc",
    "version": "0.4.19+commit.c4cbbb05.Emscripten.clang"
  },
  "schemaVersion": "1.0.1",
  "updatedAt": "2018-03-04T03:55:45.925Z"
}