{
  "contractName": "Arthimetic",
  "abi": [
    {
      "constant": true,
      "inputs": [
        {
          "name": "x",
          "type": "uint256"
        },
        {
          "name": "y",
          "type": "uint256"
        }
      ],
      "name": "add",
      "outputs": [
        {
          "name": "",
          "type": "uint256"
        }
      ],
      "payable": false,
      "stateMutability": "pure",
      "type": "function"
    },
    {
      "inputs": [],
      "payable": false,
      "stateMutability": "nonpayable",
      "type": "constructor"
    }
  ],
  "bytecode": "0x6060604052341561000f57600080fd5b60ba8061001d6000396000f300606060405260043610603f576000357c0100000000000000000000000000000000000000000000000000000000900463ffffffff168063771602f7146044575b600080fd5b3415604e57600080fd5b606b60048080359060200190919080359060200190919050506081565b6040518082815260200191505060405180910390f35b60008183019050929150505600a165627a7a72305820a0bde9a5b42a6ed8f9208a92239d0ab98e69f32b0aef1d2203b511d8d43e3a0f0029",
  "source": "pragma solidity ^0.4.4;\n\ncontract Arthimetic {\n  function Arthimetic() public {\n    // constructor\n  }\n\n  function add(uint x,uint y) public pure returns (uint) {\n    return x+y;\n  }\n}\n",
  "sourcePath": "C:\\Training\\BlockChain\\SolidityNWeb3\\SmartContracts\\calculator\\contracts\\Arthimetic.sol",
  "compiler": {
    "name": "solc",
    "version": "0.4.18+commit.9cf6e910.Emscripten.clang"
  },
  "schemaVersion": "1.0.1",
  "updatedAt": "2018-02-22T11:45:52.115Z"
}