{
  "contractName": "Scientific",
  "abi": [
    {
      "constant": false,
      "inputs": [
        {
          "name": "x",
          "type": "uint256"
        },
        {
          "name": "y",
          "type": "uint256"
        }
      ],
      "name": "squareOfSums",
      "outputs": [
        {
          "name": "",
          "type": "uint256"
        }
      ],
      "payable": false,
      "stateMutability": "nonpayable",
      "type": "function"
    },
    {
      "inputs": [],
      "payable": false,
      "stateMutability": "nonpayable",
      "type": "constructor"
    }
  ],
  "bytecode": "0x6060604052341561000f57600080fd5b6102668061001e6000396000f300606060405260043610610041576000357c0100000000000000000000000000000000000000000000000000000000900463ffffffff1680638eb547d414610046575b600080fd5b341561005157600080fd5b6100706004808035906020019091908035906020019091905050610086565b6040518082815260200191505060405180910390f35b6000806000610093610154565b604051809103906000f08015156100a957600080fd5b91508173ffffffffffffffffffffffffffffffffffffffff1663771602f786866000604051602001526040518363ffffffff167c01000000000000000000000000000000000000000000000000000000000281526004018083815260200182815260200192505050602060405180830381600087803b151561012a57600080fd5b6102c65a03f1151561013b57600080fd5b5050506040518051905090508081029250505092915050565b60405160d7806101648339019056006060604052341561000f57600080fd5b60ba8061001d6000396000f300606060405260043610603f576000357c0100000000000000000000000000000000000000000000000000000000900463ffffffff168063771602f7146044575b600080fd5b3415604e57600080fd5b606b60048080359060200190919080359060200190919050506081565b6040518082815260200191505060405180910390f35b60008183019050929150505600a165627a7a72305820615523167fe42fefc789b19d33bb0c4f979a40f764d51171a658d3c3e1c064420029a165627a7a72305820c4445be032ebb0e475e2b3334a41d306d7999c075b91fbb5f078017b9d7020500029",
  "source": "pragma solidity ^0.4.4;\nimport 'contracts/Arthimetic.sol';\ncontract Scientific {\n  function Scientific() public {\n    // constructor\n  }\n\n  function  squareOfSums(uint x, uint y) public returns (uint) {\n    var arth = new Arthimetic ();\n    var res = arth.add(x,y);\n    return res * res;\n  }\n}\n",
  "sourcePath": "C:\\Training\\BlockChain\\SolidityNWeb3\\SmartContracts\\calculator\\contracts\\Scientific.sol",
  "compiler": {
    "name": "solc",
    "version": "0.4.18+commit.9cf6e910.Emscripten.clang"
  },
  "schemaVersion": "1.0.1",
  "updatedAt": "2018-02-22T11:45:41.430Z"
}