{
  "contractName": "AaadharDemo",
  "abi": [
    {
      "inputs": [],
      "payable": false,
      "stateMutability": "nonpayable",
      "type": "constructor"
    },
    {
      "constant": false,
      "inputs": [
        {
          "name": "name",
          "type": "string"
        },
        {
          "name": "mobileNumber",
          "type": "string"
        },
        {
          "name": "addharNo",
          "type": "string"
        }
      ],
      "name": "registerAadharDetails",
      "outputs": [],
      "payable": false,
      "stateMutability": "nonpayable",
      "type": "function"
    },
    {
      "constant": false,
      "inputs": [
        {
          "name": "aadharNo",
          "type": "string"
        }
      ],
      "name": "getDetails",
      "outputs": [
        {
          "components": [
            {
              "name": "name",
              "type": "string"
            },
            {
              "name": "mobileNo",
              "type": "string"
            }
          ],
          "name": "",
          "type": "tuple"
        }
      ],
      "payable": false,
      "stateMutability": "nonpayable",
      "type": "function"
    }
  ],
  "bytecode": "0x606060405260018055341561001357600080fd5b61053b806100226000396000f30060606040526004361061004c576000357c0100000000000000000000000000000000000000000000000000000000900463ffffffff1680631328fd8f146100515780633e604f48146100c2575b600080fd5b341561005c57600080fd5b6100ac600480803590602001908201803590602001908080601f016020809104026020016040519081016040528093929190818152602001838380828437820191505050505050919050506101a5565b6040518082815260200191505060405180910390f35b34156100cd57600080fd5b6101a3600480803590602001908201803590602001908080601f0160208091040260200160405190810160405280939291908181526020018383808284378201915050505050509190803590602001908201803590602001908080601f0160208091040260200160405190810160405280939291908181526020018383808284378201915050505050509190803590602001908201803590602001908080601f0160208091040260200160405190810160405280939291908181526020018383808284378201915050505050509190505061036e565b005b6101ad610430565b6000826040518082805190602001908083835b6020831015156101e557805182526020820191506020810190506020830392506101c0565b6001836020036101000a0380198251168184511680821785525050505050509050019150509081526020016040518091039020604080519081016040529081600082018054600181600116156101000203166002900480601f0160208091040260200160405190810160405280929190818152602001828054600181600116156101000203166002900480156102bc5780601f10610291576101008083540402835291602001916102bc565b820191906000526020600020905b81548152906001019060200180831161029f57829003601f168201915b50505050508152602001600182018054600181600116156101000203166002900480601f01602080910402602001604051908101604052809291908181526020018280546001816001161561010002031660029004801561035e5780601f106103335761010080835404028352916020019161035e565b820191906000526020600020905b81548152906001019060200180831161034157829003601f168201915b5050505050815250509050919050565b6040805190810160405280848152602001838152506000826040518082805190602001908083835b6020831015156103bb5780518252602082019150602081019050602083039250610396565b6001836020036101000a0380198251168184511680821785525050505050509050019150509081526020016040518091039020600082015181600001908051906020019061040a929190610456565b506020820151816001019080519060200190610427929190610456565b50905050505050565b60408051908101604052806104436104d6565b81526020016104506104d6565b81525090565b828054600181600116156101000203166002900490600052602060002090601f016020900481019282601f1061049757805160ff19168380011785556104c5565b828001600101855582156104c5579182015b828111156104c45782518255916020019190600101906104a9565b5b5090506104d291906104ea565b5090565b602060405190810160405280600081525090565b61050c91905b808211156105085760008160009055506001016104f0565b5090565b905600a165627a7a723058205e66762e7a3cc9b5feabbf569d7aef40e2e23c8d9e4732c33ccc50dfd241beb30029",
  "source": "pragma solidity ^0.4.4;\n\ncontract AaadharDemo {\n  function AaadharDemo() {\n    // constructor\n  }\n\n  mapping (string=>Details) aadharDetails;\n\n  struct Details {\n    string name;\n    string mobileNo;\n  }\n\n  uint256 aadharCount=1;\n\n\n  function registerAadharDetails(\n    string name,\n    string mobileNumber,\n    string addharNo) {\n    aadharDetails[addharNo] = Details(name,mobileNumber);\n  }\n\n  function getDetails(string aadharNo) returns (Details) {\n    return aadharDetails[aadharNo];\n  }\n\n}\n",
  "sourcePath": "E:\\Blockchain\\SolidityNWeb3\\SmartContracts\\March2018\\CarRoute\\contracts\\AaadharDemo.sol",
  "compiler": {
    "name": "solc",
    "version": "0.4.19+commit.c4cbbb05.Emscripten.clang"
  },
  "schemaVersion": "1.0.1",
  "updatedAt": "2018-03-03T03:41:20.403Z"
}