{
  "contractName": "MapDemo",
  "abi": [
    {
      "inputs": [],
      "payable": false,
      "stateMutability": "nonpayable",
      "type": "constructor"
    },
    {
      "constant": false,
      "inputs": [],
      "name": "setSomeValues",
      "outputs": [],
      "payable": false,
      "stateMutability": "nonpayable",
      "type": "function"
    },
    {
      "constant": false,
      "inputs": [
        {
          "name": "number",
          "type": "uint256"
        }
      ],
      "name": "getWord",
      "outputs": [
        {
          "name": "word",
          "type": "string"
        }
      ],
      "payable": false,
      "stateMutability": "nonpayable",
      "type": "function"
    }
  ],
  "bytecode": "0x6060604052341561000f57600080fd5b61035c8061001e6000396000f30060606040526004361061004c576000357c0100000000000000000000000000000000000000000000000000000000900463ffffffff16806343503fac14610051578063a7e328d4146100ed575b600080fd5b341561005c57600080fd5b6100726004808035906020019091905050610102565b6040518080602001828103825283818151815260200191508051906020019080838360005b838110156100b2578082015181840152602081019050610097565b50505050905090810190601f1680156100df5780820380516001836020036101000a031916815260200191505b509250505060405180910390f35b34156100f857600080fd5b6101006101bc565b005b61010a610277565b6000808381526020019081526020016000208054600181600116156101000203166002900480601f0160208091040260200160405190810160405280929190818152602001828054600181600116156101000203166002900480156101b05780601f10610185576101008083540402835291602001916101b0565b820191906000526020600020905b81548152906001019060200180831161019357829003601f168201915b50505050509050919050565b6040805190810160405280600481526020017f7a65726f00000000000000000000000000000000000000000000000000000000815250600080808152602001908152602001600020908051906020019061021792919061028b565b506040805190810160405280600381526020017f4f6e65000000000000000000000000000000000000000000000000000000000081525060008060018152602001908152602001600020908051906020019061027492919061028b565b50565b602060405190810160405280600081525090565b828054600181600116156101000203166002900490600052602060002090601f016020900481019282601f106102cc57805160ff19168380011785556102fa565b828001600101855582156102fa579182015b828111156102f95782518255916020019190600101906102de565b5b509050610307919061030b565b5090565b61032d91905b80821115610329576000816000905550600101610311565b5090565b905600a165627a7a723058201b181fa1334a5f03f999ecb3bf2c55a0205f970ba16c8f616d1a4bda6c3414d00029",
  "source": "pragma solidity ^0.4.4;\n\ncontract MapDemo {\n  function MapDemo() {\n    // constructor\n  }\n\n  mapping (uint=>string) numberStringMap;\n\n  function setSomeValues() {\n    numberStringMap[0] = \"zero\";\n    numberStringMap[1] = \"One\";\n  }\n\n  function getWord(uint number) returns (string word) {\n    word = numberStringMap[number];\n  }\n}\n",
  "sourcePath": "E:\\Blockchain\\SolidityNWeb3\\SmartContracts\\March2018\\CarRoute\\contracts\\MapDemo.sol",
  "compiler": {
    "name": "solc",
    "version": "0.4.19+commit.c4cbbb05.Emscripten.clang"
  },
  "schemaVersion": "1.0.1",
  "updatedAt": "2018-03-03T03:39:57.597Z"
}