{
  "contractName": "MathUtil",
  "abi": [
    {
      "inputs": [],
      "payable": false,
      "stateMutability": "nonpayable",
      "type": "constructor"
    },
    {
      "constant": false,
      "inputs": [
        {
          "name": "value",
          "type": "uint256"
        }
      ],
      "name": "square",
      "outputs": [
        {
          "name": "sq",
          "type": "uint256"
        }
      ],
      "payable": false,
      "stateMutability": "nonpayable",
      "type": "function"
    }
  ],
  "bytecode": "0x6060604052341561000f57600080fd5b60b08061001d6000396000f300606060405260043610603f576000357c0100000000000000000000000000000000000000000000000000000000900463ffffffff1680637b292909146044575b600080fd5b3415604e57600080fd5b606260048080359060200190919050506078565b6040518082815260200191505060405180910390f35b600081820290509190505600a165627a7a72305820951eb5d9bf177b21b7690ca7abc1b2318a7ccacfca4e07e7bfb8667fa30010a50029",
  "source": "pragma solidity ^0.4.4;\n\ncontract MathUtil {\n  function MathUtil() {\n    // constructor\n  }\n\n  function square(uint value) returns (uint sq) {\n    sq = value * value;\n  }\n}\n",
  "sourcePath": "C:\\ClassRoom\\BlockChain\\SolidityNWeb3\\SmartContracts\\Math\\contracts\\MathUtil.sol",
  "compiler": {
    "name": "solc",
    "version": "0.4.19+commit.c4cbbb05.Emscripten.clang"
  },
  "schemaVersion": "1.0.1",
  "updatedAt": "2018-02-25T05:37:04.131Z"
}