{
  "contractName": "VisitCount",
  "abi": [
    {
      "inputs": [],
      "payable": false,
      "stateMutability": "nonpayable",
      "type": "constructor"
    },
    {
      "constant": false,
      "inputs": [],
      "name": "visit",
      "outputs": [],
      "payable": false,
      "stateMutability": "nonpayable",
      "type": "function"
    },
    {
      "constant": false,
      "inputs": [],
      "name": "getVisitorCount",
      "outputs": [
        {
          "name": "",
          "type": "uint256"
        }
      ],
      "payable": false,
      "stateMutability": "nonpayable",
      "type": "function"
    },
    {
      "constant": false,
      "inputs": [],
      "name": "addFakeVisitors",
      "outputs": [],
      "payable": false,
      "stateMutability": "nonpayable",
      "type": "function"
    }
  ],
  "bytecode": "0x606060405260008055341561001357600080fd5b610292806100226000396000f300606060405260043610610057576000357c0100000000000000000000000000000000000000000000000000000000900463ffffffff1680630cc4330c1461005c578063609619551461007157806393cfd79f14610086575b600080fd5b341561006757600080fd5b61006f6100af565b005b341561007c57600080fd5b6100846100c2565b005b341561009157600080fd5b610099610181565b6040518082815260200191505060405180910390f35b6000808154809291906001019190505550565b60006100cc61018a565b604051809103906000f08015156100e257600080fd5b90508073ffffffffffffffffffffffffffffffffffffffff16637b2929096000546000604051602001526040518263ffffffff167c010000000000000000000000000000000000000000000000000000000002815260040180828152602001915050602060405180830381600087803b151561015d57600080fd5b6102c65a03f1151561016e57600080fd5b5050506040518051905060008190555050565b60008054905090565b60405160cd8061019a8339019056006060604052341561000f57600080fd5b60b08061001d6000396000f300606060405260043610603f576000357c0100000000000000000000000000000000000000000000000000000000900463ffffffff1680637b292909146044575b600080fd5b3415604e57600080fd5b606260048080359060200190919050506078565b6040518082815260200191505060405180910390f35b600081820290509190505600a165627a7a72305820951eb5d9bf177b21b7690ca7abc1b2318a7ccacfca4e07e7bfb8667fa30010a50029a165627a7a723058203774f860d0333cf6e5a50eb8453b1fe4863df783a14b4da97a87d7bfd70929e20029",
  "source": "pragma solidity ^0.4.4;\nimport './MathUtil.sol';\n\ncontract VisitCount {\n  function VisitCount() {\n    // constructor\n  }\n\n  uint count = 0;\n\n  function visit() {\n    count++;\n  } \n\n  function getVisitorCount() returns (uint) {\n    return count;\n  }\n\n  function addFakeVisitors() {\n    var mathUtil = new MathUtil();\n    count = mathUtil.square(count);\n  }\n}\n",
  "sourcePath": "C:\\ClassRoom\\BlockChain\\SolidityNWeb3\\SmartContracts\\Math\\contracts\\VisitCount.sol",
  "compiler": {
    "name": "solc",
    "version": "0.4.19+commit.c4cbbb05.Emscripten.clang"
  },
  "schemaVersion": "1.0.1",
  "updatedAt": "2018-02-25T05:37:04.132Z"
}