{
  "contractName": "StringDemo",
  "abi": [
    {
      "inputs": [],
      "payable": false,
      "stateMutability": "nonpayable",
      "type": "constructor"
    },
    {
      "constant": false,
      "inputs": [
        {
          "name": "index",
          "type": "uint256"
        }
      ],
      "name": "getElementAt",
      "outputs": [
        {
          "name": "",
          "type": "bytes1"
        }
      ],
      "payable": false,
      "stateMutability": "nonpayable",
      "type": "function"
    },
    {
      "constant": false,
      "inputs": [],
      "name": "getSize",
      "outputs": [
        {
          "name": "",
          "type": "uint256"
        }
      ],
      "payable": false,
      "stateMutability": "nonpayable",
      "type": "function"
    }
  ],
  "bytecode": "0x60606040526040805190810160405280600581526020017f48656c6c6f0000000000000000000000000000000000000000000000000000008152506000908051906020019061004f929190610060565b50341561005b57600080fd5b610105565b828054600181600116156101000203166002900490600052602060002090601f016020900481019282601f106100a157805160ff19168380011785556100cf565b828001600101855582156100cf579182015b828111156100ce5782518255916020019190600101906100b3565b5b5090506100dc91906100e0565b5090565b61010291905b808211156100fe5760008160009055506001016100e6565b5090565b90565b6101b7806101146000396000f30060606040526004361061004c576000357c0100000000000000000000000000000000000000000000000000000000900463ffffffff168063d8a865f614610051578063de8fa431146100cc575b600080fd5b341561005c57600080fd5b61007260048080359060200190919050506100f5565b60405180827effffffffffffffffffffffffffffffffffffffffffffffffffffffffffffff19167effffffffffffffffffffffffffffffffffffffffffffffffffffffffffffff1916815260200191505060405180910390f35b34156100d757600080fd5b6100df610168565b6040518082815260200191505060405180910390f35b600080600090508083815460018160011615610100020316600290048110151561011b57fe5b81546001161561013a5790600052602060002090602091828204019190065b9054901a7f010000000000000000000000000000000000000000000000000000000000000002915050919050565b6000806000905080805460018160011615610100020316600290049050915050905600a165627a7a72305820aed2966de7f4ed7930a9650764b3c10cc6aa4720606dd8fcfc404574d33bad8a0029",
  "source": "pragma solidity ^0.4.4;\n\nimport \"./strings.sol\";\n\ncontract StringDemo {\n  function StringDemo() {\n    // constructor\n  }\n\n  string content = \"Hello\";\n\n  function getElementAt(uint256 index) returns (byte) {\n    bytes eqBytes = bytes(content);\n    return eqBytes[index];\n  }\n\n  function getSize() returns (uint256) {\n    bytes eqBytes = bytes(content);\n    return eqBytes.length;\n  }\n}\n",
  "sourcePath": "E:\\Blockchain\\SolidityNWeb3\\SmartContracts\\March2018\\StringDemo\\contracts\\StringDemo.sol",
  "compiler": {
    "name": "solc",
    "version": "0.4.19+commit.c4cbbb05.Emscripten.clang"
  },
  "schemaVersion": "1.0.1",
  "updatedAt": "2018-03-02T01:14:03.015Z"
}