{
  "contractName": "TupleDemo",
  "abi": [
    {
      "inputs": [],
      "payable": false,
      "stateMutability": "nonpayable",
      "type": "constructor"
    },
    {
      "constant": false,
      "inputs": [],
      "name": "getNameAndAge",
      "outputs": [
        {
          "name": "nameR",
          "type": "string"
        },
        {
          "name": "ageR",
          "type": "uint8"
        }
      ],
      "payable": false,
      "stateMutability": "nonpayable",
      "type": "function"
    }
  ],
  "bytecode": "0x60606040526040805190810160405280600281526020017f51540000000000000000000000000000000000000000000000000000000000008152506000908051906020019061004f92919061007c565b506008600160006101000a81548160ff021916908360ff160217905550341561007757600080fd5b610121565b828054600181600116156101000203166002900490600052602060002090601f016020900481019282601f106100bd57805160ff19168380011785556100eb565b828001600101855582156100eb579182015b828111156100ea5782518255916020019190600101906100cf565b5b5090506100f891906100fc565b5090565b61011e91905b8082111561011a576000816000905550600101610102565b5090565b90565b6101de806101306000396000f300606060405260043610610041576000357c0100000000000000000000000000000000000000000000000000000000900463ffffffff168063837e4cd914610046575b600080fd5b341561005157600080fd5b6100596100e1565b60405180806020018360ff1660ff168152602001828103825284818151815260200191508051906020019080838360005b838110156100a557808201518184015260208101905061008a565b50505050905090810190601f1680156100d25780820380516001836020036101000a031916815260200191505b50935050505060405180910390f35b6100e961019e565b6000600160009054906101000a900460ff16905060008054600181600116156101000203166002900480601f0160208091040260200160405190810160405280929190818152602001828054600181600116156101000203166002900480156101935780601f1061016857610100808354040283529160200191610193565b820191906000526020600020905b81548152906001019060200180831161017657829003601f168201915b505050505091509091565b6020604051908101604052806000815250905600a165627a7a723058206154332fc9c8e1baa7a75e475f99ef09a70bc4956016a2436ed06b6bc792e7f60029",
  "source": "pragma solidity ^0.4.4;\n\ncontract TupleDemo {\n  function TupleDemo() {\n    // constructor\n  }\n\n  string name = \"QT\";\n  uint8 age = uint8(8);\n\n  function getNameAndAge() returns (string nameR, uint8 ageR) {\n    ageR = age;\n    nameR = name;\n  }\n}\n",
  "sourcePath": "E:\\Blockchain\\SolidityNWeb3\\SmartContracts\\March2018\\StringDemo\\contracts\\TupleDemo.sol",
  "compiler": {
    "name": "solc",
    "version": "0.4.19+commit.c4cbbb05.Emscripten.clang"
  },
  "schemaVersion": "1.0.1",
  "updatedAt": "2018-03-02T01:26:45.209Z"
}